:020000040000FA
:100000000C9463000C948B000C948B000C948B006C
:100010000C948B000C948B000C948B000C948B0034
:100020000C948B000C948B000C948B000C948B0024
:100030000C948B000C948B000C948B000C948B0014
:100040000C946A080C948B000C9438080C941208D9
:100050000C948B000C948B000C948B000C948B00F4
:100060000C948B000C948B000000000024002700EF
:100070002A0000000000250028002B0000000008D6
:10008000000201000003040700000000000000005F
:1000900000000000230026002900040404040404D6
:1000A0000404020202020202030303030303010227
:1000B00004081020408001020408102001020408F6
:1000C0001020B408B90C11241FBECFEFD8E0DEBF5A
:1000D000CDBF22E0A6ECB1E001C01D92A93CB20761
:1000E000E1F711E0A0E0B1E0EEE8F3E202C0059034
:1000F0000D92A63CB107D9F710E0C2E6D0E004C0EB
:100100002197FE010E94AE0FC136D107C9F70E94A8
:1001100036090C94BA110C9400008F929F92AF9202
:10012000BF92CF92DF92EF92FF92CF93DF93A09195
:10013000BA0230E081113A2F8091BB0290E0880F23
:10014000991FAC0140575F4FC090C002D090C102D0
:10015000E090C202F090C30260E070E0CB01FA01CF
:10016000C591D49128812A2323130FC04B015C0130
:100170002FEF821A920AA20AB20A6C157D058E052B
:100180009F0570F060E070E0CB01DF91CF91FF90B0
:10019000EF90DF90CF90BF90AF909F908F90089599
:1001A000C501B401DCCF0895DC01ED91FC91019013
:1001B000F081E02D0994AF92BF92CF92DF92EF923F
:1001C000FF920F931F93CF93DF936C017B018B0101
:1001D000040F151FEB015E01AE18BF08C017D10751
:1001E00059F06991D601ED91FC910190F081E02DDB
:1001F000C6010995892B79F7C501DF91CF911F9130
:100200000F91FF90EF90DF90CF90BF90AF90089547
:10021000FC01538D448D252F30E0842F90E0821B0C
:10022000930B541710F0CF96089501970895FC0191
:10023000918D828D981761F0A28DAE0FBF2FB11DE9
:100240005D968C91928D9F5F9F73928F90E0089541
:100250008FEF9FEF08952FB7F8948091D60190917A
:10026000D701A091D801B091D9012FBF8093E201AD
:100270009093E301A093E401B093E5018AED91E04E
:100280000E94170197FF26C02FB7F8948091D601DE
:100290009091D701A091D801B091D9012FBF409181
:1002A000E2015091E3016091E4017091E501841B4A
:1002B000950BA60BB70B4091DE015091DF016091C9
:1002C000E0017091E10184179507A607B707B0F226
:1002D0008FEF9FEF0895FC01918D828D981731F07B
:1002E000828DE80FF11D858D90E008958FEF9FEFCF
:1002F0000895FC01918D228D892F90E0805C9F4FA5
:10030000821B91098F73992708958AED91E00E94CD
:10031000790121E0892B09F420E0822F089580E003
:1003200090E0892B29F00E94850181110C94000036
:100330000895FC01A48DA80FB92FB11DA35ABF4F7A
:100340002C91848D90E001968F739927848FA689D4
:10035000B7892C93A089B1898C91837080648C9328
:10036000938D848D981306C00288F389E02D8081D7
:100370008F7D80830895EF92FF920F931F93CF9309
:10038000DF93EC0181E0888F9B8D8C8D98131AC0D0
:10039000E889F989808185FF15C09FB7F894EE89B7
:1003A000FF896083E889F989808183708064808314
:1003B0009FBF81E090E0DF91CF911F910F91FF905F
:1003C000EF900895F62E0B8D10E00F5F1F4F0F7307
:1003D0001127E02E8C8D8E110CC00FB607FCFACFC2
:1003E000E889F989808185FFF5CFCE010E949901C6
:1003F000F1CFEB8DEC0FFD2FF11DE35AFF4FF08293
:100400009FB7F8940B8FEA89FB8980818062CFCFF8
:10041000CF93DF93EC01888D8823B9F0AA89BB893B
:10042000E889F9898C9185FD03C0808186FD0DC026
:100430000FB607FCF7CF8C9185FFF2CF808185FF47
:10044000EDCFCE010E949901E9CFDF91CF910895C0
:1004500090E0FC01E458FF4F2491FC01E255FF4F6E
:100460003491FC01E656FF4FE491EE23C9F02223BC
:1004700039F0233001F1A8F4213019F1223029F1AB
:10048000F0E0EE0FFF1FEE58FF4FA591B4918FB72C
:10049000F894EC91611126C030953E233C938FBFB8
:1004A00008952730A9F02830C9F0243049F7809109
:1004B00080008F7D03C0809180008F7780938000C3
:1004C000DFCF84B58F7784BDDBCF84B58F7DFBCF45
:1004D0008091B0008F778093B000D2CF8091B00030
:1004E0008F7DF9CF3E2BDACFCF93DF9390E0FC01E5
:1004F000E255FF4F249186569F4FFC01849188233B
:10050000D1F090E0880F991FFC01E859FF4FA591A9
:10051000B491FC01EE58FF4FC591D491623071F453
:100520009FB7F8943C91822F809583238C93E88128
:100530002E2B28839FBFDF91CF9108958FB7F8941A
:10054000EC912E2B2C938FBFF6CF3FB7F894809170
:10055000C7019091C801A091C901B091CA0126B507
:10056000A89B05C02F3F19F00196A11DB11D3FBFEB
:10057000BA2FA92F982F8827BC01CD01620F711DBA
:10058000811D911D42E0660F771F881F991F4A95B4
:10059000D1F708958F929F92AF92BF92CF92DF9240
:1005A000EF92FF926B017C010E94A5024B015C015E
:1005B000C114D104E104F104B9F00E94A502681944
:1005C00079098A099B09683E73408105910580F38A
:1005D00021E0C21AD108E108F10888EE880E83E014
:1005E000981EA11CB11CE4CFFF90EF90DF90CF903C
:1005F000BF90AF909F908F900895CF92DF92EF922F
:10060000FF920F931F93CF93DF93CDB7DEB7C05404
:10061000D1400FB6F894DEBF0FBECDBF2FB7F89410
:100620008091D6019091D701A091D801B091D901C4
:100630002FBF4091BC025091BD026091BE027091EB
:10064000BF028C019D01041B150B260B370BB90152
:10065000A801403D57406105710590F48091C402A6
:10066000C05CDE4F0FB6F894DEBF0FBECDBFDF918A
:10067000CF911F910F91FF90EF90DF90CF90089551
:100680008093BC029093BD02A093BE02B093BF02C0
:100690001092B7021092B6021092B5021092B402F4
:1006A0001092B30261E08091B8020E9428026AEFC2
:1006B00070E080E090E00E94CA0261E08091B802A0
:1006C0000E94740260E08091B8020E94280264E1F6
:1006D00070E080E090E00E94CA02F89461E08091AE
:1006E000B8020E9428028BE990E00197F1F762E0DE
:1006F0008091B8020E94740283E290E00197F1F7C2
:1007000080E00E948D00672B682B692B29F41092E2
:10071000C402789480E0A4CF81E00E948D00672B12
:10072000682B692BA1F38E010F5F1F4F6E012FEB1A
:10073000C21A2EEFD20A780180E00E948D00F701E4
:10074000608371838283938381E00E948D00F7012F
:100750006483758386839783F8E0EF0EF11CEC14B5
:10076000FD0451F7789430E020E0F801C080D1809A
:10077000E280F3804481558166817781C114D10480
:10078000E104F10429F0411551056105710519F4E1
:100790001092C402BFCFF90183E0F595E7958A95E1
:1007A000E1F7ED54FD4F8081880FC416D506E606AB
:1007B000F70610F180832F5F3F4F085F1F4F2832ED
:1007C000310599F64091B7022091B3028091B402AD
:1007D000280F3327331F8091B502280F311D8091D8
:1007E000B602820F932F911D99274817190681F69B
:1007F00081E08093C40234CF8160DCCF90E080E060
:100800000895CF93DF93EC0160E08E810E9428026F
:1008100061E08E810E94280260E08E810E942802A1
:100820008BE891E00197F1F7DF91CF910895CF9296
:10083000DF92EF92FF920F931F93CF93DF936C01A0
:100840007C0187E0E80EF11CD0E0C0E0062F10E04C
:10085000B8010C2E02C0759567950A94E2F7617095
:10086000F70181917F010E9428022196C430D105B1
:1008700079F7C601DF91CF911F910F91FF90EF9013
:10088000DF90CF900C940104CF92DF92EF92FF9211
:100890000F931F93CF93DF93EC01F62E642F8C817F
:1008A0000E9428028D818F3F19F060E00E9428028B
:1008B0000F2D10E08F8584FF25C06E0187E0C80EE4
:1008C000D11CF12CE12CB8010E2C02C07595679556
:1008D0000A94E2F76170F60181916F010E9428028B
:1008E000FFEFEF1AFF0A88E0E816F10461F7CE0186
:1008F000DF91CF911F910F91FF90EF90DF90CF90FC
:100900000C940104B80184E0759567958A95E1F728
:10091000CE010E9417046F2DCE01DF91CF911F9160
:100920000F91FF90EF90DF90CF900C94170440E070
:10093000682F8BE992E00C944404CF93DF938230CC
:1009400029F49091AA0298609093AA028093AE0233
:100950001092AF0280E48093B00280E18093B102F4
:1009600080E58093B20261E080919F020E94740250
:100970008091A0028F3F19F061E00E94740261E053
:100980008091A1020E947402CBE9D2E09E012B5912
:1009900032408091AA0284FD0BC084E090E0219651
:1009A0002817390744F461E08E810E947402EECF6B
:1009B00088E090E0F4CF8BE39DE00197F1F760E0F1
:1009C00080919F020E94280260E08091A1020E9413
:1009D00028028091A0028F3F19F060E00E94280257
:1009E0008091AA0284FD39C063E08BE992E00E9405
:1009F0001704CBE4D6E4CE010197F1F763E08BE96D
:100A000092E00E9417042197F1F763E08BE992E0EE
:100A10000E94170483E592E00197F1F762E08BE909
:100A200092E00E9417048091AA0280620E949704BB
:100A300084E08093AB028CE00E94970481E00E94E6
:100A400097048BE39FE10197F1F782E08093AC027A
:100A500086E0DF91CF910C94970480620E94970406
:100A60008BE496E40197F1F78091AA0280620E94DC
:100A7000970483E592E00197F1F78091AA028062E2
:100A80000E949704D0CF41E00E94440481E090E0AE
:100A90000895FB0101900020E9F73197AF01461B53
:100AA000570BDC01ED91FC910280F381E02D09945C
:100AB0008F929F92AF92BF92EF92FF920F931F93EC
:100AC000CF93DF93CDB7DEB7A1970FB6F894DEBF13
:100AD0000FBECDBF7C01FA01CB0119A2223008F470
:100AE0002AE08E010F5D1F4F822E912CB12CA12C7C
:100AF000BF01A50194010E948C0FF901CA016A305F
:100B00000CF5605DD8016E938D01232B242B252BD2
:100B100079F790E080E0109721F0BD01C7010E94B5
:100B20004905A1960FB6F894DEBF0FBECDBFDF9189
:100B3000CF911F910F91FF90EF90BF90AF909F903A
:100B40008F900895695CDECF2F923F924F925F9213
:100B50006F927F928F929F92AF92BF92CF92DF92CD
:100B6000EF92FF921F93CF93DF93EC016A017B0119
:100B7000722EAB019601CB01B6010E94870F67E38D
:100B800071E0811126C046015701E894B7F82FEFB4
:100B90003FEF4FE75FE7C501B4010E94870F811166
:100BA0000CC02FEF3FEF4FE75FE7C501B4010E9494
:100BB000160D6BE371E0181664F02FEF3FEF4FE76F
:100BC0005FE4C701B6010E94820F1816B4F46FE308
:100BD00071E0CE01DF91CF911F91FF90EF90DF90F8
:100BE000CF90BF90AF909F908F907F906F905F90CD
:100BF0004F903F902F900C9449052FEF3FEF4FE718
:100C00005FECC701B6010E94160D87FDE0CF20E022
:100C100030E0A901C701B6010E94160D312C212C2C
:100C200087FF09C06DE2CE010E94D4001C01F7FAD3
:100C3000F094F7F8F09410E060E070E080E09FE35B
:100C4000711641F020E030E040E251E40E94E10EF4
:100C50001F5FF6CFA70196010E94750E2B013C0184
:100C60000E94530F4B015C012AE0BC01A401CE019C
:100C70000E9458057C01E20CF31C1123C1F1C5014F
:100C8000B4010E941B0D9B01AC01C301B2010E9483
:100C9000740E4B015C016EE2CE010E94D400E80E9E
:100CA000F91E115020F120E030E040E251E4C5018E
:100CB000B4010E947C0D2B013C010E94530F4B019B
:100CC000B12CA12C2AE0B501A401CE010E94580547
:100CD000E80EF91EC501B4010E941B0D9B01AC0179
:100CE000C301B2010E94740E4B015C01DACFC7014F
:100CF000DF91CF911F91FF90EF90DF90CF90BF9049
:100D0000AF909F908F907F906F905F904F903F90AB
:100D10002F9008950C944905CF93DF932091990269
:100D200030919A028217930788F4C0919502D0916E
:100D300096026CE270E08C0F9D1F0E949F1100973D
:100D400029F08C1B9D0BDF91CF9108958FEF9FEFC2
:100D5000FACFAF92BF92CF92DF92EF92FF920F93B2
:100D60001F93CF93DF93DC01CD90DC901197C114DA
:100D7000D10439F01496CD91DC918C017601209745
:100D800061F4DF91CF911F910F91FF90EF90DF9071
:100D9000CF90BF90AF90089575015701BFEFAB1A88
:100DA000BB0AF7018081082E000C990B0E940D0DE3
:100DB000892B91F72197CC0DDD1D8881082E000C21
:100DC000990B0E940D0D892B29F0CE15DF0510F02F
:100DD0002197F3CFAE014F5F5F4F4E195F09D801E6
:100DE00015965C934E931497CE14DF0420F4B7014C
:100DF000C6010E949611D801ED91FC9111971496AD
:100E00008D919C91E80FF91F1082BBCFFC012481CA
:100E10003581232B39F421E0FB018081882349F0BF
:100E200020E007C0808191810E94AA1121E0892BD6
:100E3000B9F7822F08950F931F93CF93DF938C01FF
:100E4000EB01FC01808191810097E1F0688179815B
:100E500061157105A9F0428153812C813D814217B2
:100E6000530770F00E94B3118C819D81F801958326
:100E700084831D821C82DF91CF911F910F91089571
:100E80000E94501088819981F801918380838A8122
:100E90009B81938382838C819D8195838483198236
:100EA00018821B821A82E5CFCF93DF93EC018881F1
:100EB0009981009711F00E945010198218821D82AA
:100EC0001C821B821A82DF91CF910895FC018081E0
:100ED0009181009711F00C94501008950F931F9377
:100EE000CF93DF93EC0188819981009759F02A8193
:100EF0003B812617370730F081E0DF91CF911F91BA
:100F00000F9108958B016F5F7F4F0E94D91000975A
:100F100059F0998388831B830A832C813D81232B7D
:100F200059F7FC011082E8CF80E0E7CFCF93DF9341
:100F3000EC01198218821B821A821D821C8270E0C9
:100F400060E00E946E07811105C0CE01DF91CF9154
:100F50000C9454071D821C8261E571E0888199819F
:100F6000DF91CF910C94B311BF92CF92DF92EF92A9
:100F7000FF920F931F93CF93DF937C016B018A0144
:100F80004617570720F48D2D6A01062F182FC70129
:100F90000E949607C0919902D0919A02CC16DD0664
:100FA00068F50C171D0708F4E801E0919502F0912F
:100FB0009602EC0FFD1FB0801082009195021091F7
:100FC00096020C0D1D1D0115110571F0F80101901F
:100FD0000020E9F731976F01C01AD10AB601C701A5
:100FE0000E946E07811115C0C7010E9454078091AD
:100FF000950290919602C80FD91FB882C701DF9160
:10100000CF911F910F91FF90EF90DF90CF90BF9005
:101010000895F701D582C482B801808191810E9430
:10102000B311E5CF1F920F920FB60F9211242F9399
:101030003F934F935F936F937F938F939F93AF9360
:10104000BF93EF93FF938AED91E00E949901FF9186
:10105000EF91BF91AF919F918F917F916F915F9130
:101060004F913F912F910F900FBE0F901F901895A9
:101070001F920F920FB60F9211242F938F939F936D
:10108000EF93FF93E091EA01F091EB018081E09111
:10109000F001F091F10182FD1BC090818091F3017C
:1010A0008F5F8F732091F401821741F0E091F3017B
:1010B000F0E0E652FE4F958F8093F301FF91EF91A0
:1010C0009F918F912F910F900FBE0F901F901895A9
:1010D0008081F4CF1F920F920FB60F9211242F939D
:1010E0003F938F939F93AF93BF938091D60190913D
:1010F000D701A091D801B091D9013091C60123E068
:10110000230F2D3758F50196A11DB11D2093C6015F
:101110008093D6019093D701A093D801B093D901C1
:101120008091C7019091C801A091C901B091CA01F5
:101130000196A11DB11D8093C7019093C801A09392
:10114000C901B093CA01BF91AF919F918F913F9117
:101150002F910F900FBE0F901F90189526E8230F28
:101160000296A11DB11DD2CFEAEDF1E013821282E9
:1011700088EE93E0A0E0B0E084839583A683B783F4
:101180008DE191E09183808385EC90E09587848761
:1011900084EC90E09787868780EC90E0918B808B41
:1011A00081EC90E0938B828B82EC90E0958B848B2A
:1011B00086EC90E0978B868B118E128E138E148E98
:1011C000A3EBB2E08FE015968C93159786E1169607
:1011D0008C931697EDEBF0E0E4911796EC9317974C
:1011E000E9EAF0E0E4911896EC93189740E85EE3A2
:1011F00060E070E01D964D935D936D937C935097E6
:10120000EBE9F2E0138212828FE291E09183808316
:1012100082E084838FEF858383E0868384E0878305
:1012200085E0808786E0818787E082871386148641
:1012300015861686178681E00E949D0485E992E056
:101240000E9496078FE892E00E94960789E892E054
:101250000E94960783E892E00E9496078DE792E04D
:101260000E94960787E792E00C949607CF93DF934E
:10127000CDB7DEB728970FB6F894DEBF0FBECDBF4F
:10128000789484B5826084BD84B5816084BD85B561
:10129000826085BD85B5816085BD80916E0081606D
:1012A00080936E0010928100809181008260809313
:1012B0008100809181008160809381008091800015
:1012C0008160809380008091B10084608093B10040
:1012D0008091B00081608093B00080917A0084603A
:1012E00080937A0080917A00826080937A00809166
:1012F0007A00816080937A0080917A008068809380
:101300007A001092C100E091EA01F091EB0182E0D5
:101310008083E091E601F091E7011082E091E8011D
:10132000F091E9018FEC80831092F201E091EE01DF
:10133000F091EF0186E08083E091EC01F091ED0106
:10134000808180618083E091EC01F091ED018081EA
:1013500088608083E091EC01F091ED0180818068EC
:101360008083E091EC01F091ED0180818F7D80839D
:1013700082E00E949D048FEF84B963E471E08AEDFE
:1013800091E00E9449056FE471E08AED91E00E94CE
:10139000490562E571E08AED91E00E9449056FE43C
:1013A00071E08AED91E00E94490546E9242E312C36
:1013B00080E480937C0080917A00806480937A003E
:1013C00080917A0086FDFCCF809178006091790051
:1013D000762F682F072E000C880B990B0E941D0D8D
:1013E00020E030E040E85AE30E947C0D20E030E449
:1013F0004CE955E40E947C0D20E030E040E251E4ED
:101400000E94E10E2B013C0166E671E08AED91E05D
:101410000E948A066DE08AED91E00E94D4006AE0A5
:101420008AED91E00E94D40064E170E080E090E0F9
:101430000E94CA0260E771E08AED91E00E948A068C
:101440006AE08AED91E00E94D4006DE871E08AEDD7
:1014500091E00E948A0622E0B301A2018AED91E0A8
:101460000E94A40566E871E08AED91E00E948A0678
:101470000E94FD02882341F08091B9028B3059F01F
:1014800018F08551823020F1C12CD12C30ECE32EA4
:101490003FE7F32E09C06091B30270E090E080E076
:1014A0000E941B0D6B017C010E94FD02882349F004
:1014B0008091B9028B3069F120F08551823008F4B7
:1014C000CFC0812C912C20ECA22E2FE7B22E2AC067
:1014D0006091B30270E090E080E00E941B0D20E07C
:1014E00030E040E853E40E947C0D6B017C01609188
:1014F000B40270E090E080E00E941D0DA70196010B
:101500000E94750E2DEC3CEC4CEC5DE30E947C0DD2
:10151000C9CF6091B50270E090E080E00E941B0DA1
:101520004B015C0169E871E08AED91E00E948A0656
:1015300022E0B501A4018AED91E00E94A40566E8CD
:1015400071E08AED91E00E948A066AE971E08AED15
:1015500091E00E948A0622E0B701A6018AED91E09F
:101560000E94A40566E871E08AED91E00E948A0677
:101570006AE18AED91E00E94D40081E00E94970424
:101580008BE39FE10197F1F7E1E08091AE028111D9
:10159000E0E0E195F0E0E556FD4F848980680E9427
:1015A000970468EA71E08BE992E00E948A0622E0E3
:1015B000B301A2018BE992E00E94A4056CEA71E0FC
:1015C0008BE992E00E948A0622E0B501A4018BE932
:1015D00092E00E94A405E091AE02E23008F06BC0F8
:1015E000E150F0E0E556FD4F848980680E94970441
:1015F0006EE971E08BE992E00E948A0622E0B70171
:10160000A6018BE992E00E94A4058AED91E00E9478
:1016100079018C01892B09F455C1CE0101960E94F4
:1016200096070E942B0197FD48C08F8318860D8175
:101630001E810F5F1F4FB801CE0101960E946E07F9
:10164000882379F329813A818D819E81BE01695F6A
:101650007F4F820F931F0E94B3111E830D83E1CF32
:101660001091B502612F6F7770E090E080E00E94EA
:101670001D0D20E030E040E853E40E947C0D4B015A
:101680005C016091B60270E090E080E00E941D0D68
:10169000A50194010E94750E2DEC3CEC4CEC5DE331
:1016A0000E947C0D4B015C0117FF3CCFB7FAB09450
:1016B000B7F8B09437CFE1E094CFBE016F5F7F4FB2
:1016C00085E992E00E941B07CE0101960E94660701
:1016D00090E080E00E948C066C019093D50180938D
:1016E000D4014C018FEF881A980AC4010E948C061D
:1016F0007C019093D3018093D2015C019FEFA91AE2
:10170000B90AC5010E948C068C019093D101809387
:10171000D0013C01EFEF6E1A7E0AC3010E948C06D5
:101720002C019093CF018093CE01A60170E060E080
:10173000CE0101960E94B407BE016F5F7F4F8FE814
:1017400092E00E941B07CE0101960E946607A70146
:10175000B401CE0101960E94B407BE016F5F7F4FB6
:1017600089E892E00E941B07CE0101960E9466075D
:10177000A801B501CE0101960E94B407BE016F5FBA
:101780007F4F83E892E00E941B07CE0101960E94E2
:101790006607A201B301CE0101960E94B407BE0103
:1017A0006F5F7F4F8DE792E00E941B07CE0101968D
:1017B0000E9466074091990250919A02B2016F5FB0
:1017C0007F4FCE0101960E94B407BE016F5F7F4F2D
:1017D00087E792E00E941B07CE0101960E946607F0
:1017E0008FE892E00E94A90689E892E00E94A9068B
:1017F00083E892E00E94A9068DE792E00E94A90684
:1018000087E792E00E94A90661EB71E08FE892E021
:101810000E940607882309F4F8CE65EB71E089E899
:1018200092E00E940607882319F01092CD01EDCEB8
:1018300069EB71E089E892E00E940607882319F0BD
:10184000F1E0F093CD0160EC71E083E892E00E945A
:101850000607882319F081E0809302016CEB71E0A8
:1018600083E892E00E94060781111092020162EC67
:1018700071E08DE792E00E940607882321F0309204
:1018800001012092000164EC71E08DE792E00E947A
:101890000607882331F0E2E3F0E0F0930101E093E2
:1018A00000018091770290917802009739F00E94B0
:1018B000D10C7093CC016093CB01A7CE60E070E0B7
:1018C000CB01F7CF8091CD01882309F445C08091E9
:1018D000CB019091CC0108171907D4F58091020132
:1018E0008823E1F099E1E92E91E0F92EF2E0EF1A78
:1018F000F108F701808185B96091000170910101C3
:10190000072E000C880B990B0E94CA0289E091E017
:101910008E159F0559F70F5F1F4FD9CF89E0E82E2D
:1019200081E0F82EF7018081F2E0EF0EF11C85B91D
:101930006091000170910101072E000C880B990B3A
:101940000E94CA0289E1E81681E0F80659F7E3CF60
:101950001092CC011092CB0180E090E0892B09F429
:1019600027CD0E948501882309F422CD0E94000022
:101970001FCD87E792E00E9466078DE792E00E9404
:10198000660783E892E00E94660789E892E00E9479
:1019900066078FE892E00E94660785E992E00C9462
:1019A00066071F93FC0199278827BC01E8941191D1
:1019B0001032E9F3193010F01E30C8F31B3251F029
:1019C0001D3249F4689406C00E94F80C610F711D25
:1019D000811D911D119110531A30B0F33EF4909572
:1019E0008095709561957F4F8F4F9F4F1F91089500
:1019F000592F482F372F262F660F771F881F991FC3
:101A0000660F771F881F991F620F731F841F951F12
:101A1000660F771F881F991F089591110C94E90D87
:101A2000803219F089508550C8F708950E94580DEA
:101A300008F481E00895E89409C097FB3EF490957E
:101A40008095709561957F4F8F4F9F4F9923A9F097
:101A5000F92F96E9BB279395F69587957795679526
:101A6000B795F111F8CFFAF4BB0F11F460FF1BC06A
:101A70006F5F7F4F8F4F9F4F16C0882311F096E9FD
:101A800011C0772321F09EE8872F762F05C06623AB
:101A900071F096E8862F70E060E02AF09A95660F64
:101AA000771F881FDAF7880F9695879597F908951D
:101AB000990F0008550FAA0BE0E8FEEF161617065F
:101AC000E807F907C0F012161306E407F50798F0C7
:101AD000621B730B840B950B39F40A2661F0232BE0
:101AE000242B252B21F408950A2609F4A140A6955C
:101AF0008FEF811D811D08950E948F0D0C94030EA0
:101B00000E94F50D38F00E94FC0D20F0952311F095
:101B10000C94EC0D0C94F20D11240C94370E0E94D1
:101B2000140E70F3959FC1F3950F50E0551F629FFF
:101B3000F001729FBB27F00DB11D639FAA27F00D26
:101B4000B11DAA1F649F6627B00DA11D661F829F4D
:101B50002227B00DA11D621F739FB00DA11D621F32
:101B6000839FA00D611D221F749F3327A00D611D4F
:101B7000231F849F600D211D822F762F6A2F112431
:101B80009F5750409AF0F1F088234AF0EE0FFF1F64
:101B9000BB1F661F771F881F91505040A9F79E3FBB
:101BA000510580F00C94EC0D0C94370E5F3FE4F37C
:101BB000983ED4F3869577956795B795F795E79511
:101BC0009F5FC1F7FE2B880F911D9695879597F91A
:101BD000089599278827089597F99F6780E870E00E
:101BE00060E008959FEF80EC089500240A94161693
:101BF000170618060906089500240A9412161306FB
:101C0000140605060895092E0394000C11F4882388
:101C100052F0BB0F40F4BF2B11F460FF04C06F5FA4
:101C20007F4F8F4F9F4F089557FD9058440F551F7A
:101C300059F05F3F71F04795880F97FB991F61F04E
:101C40009F3F79F087950895121613061406551FC5
:101C5000F2CF4695F1DF08C0161617061806991F31
:101C6000F1CF86957105610508940895E894BB2726
:101C700066277727CB0197F908952F923F924F92CD
:101C80005F926F927F928F929F92AF92BF92CF920C
:101C9000DF92EF92FF920F931F93CF93DF93CDB715
:101CA000DEB7CA1BDB0B0FB6F894DEBF0FBECDBF8D
:101CB00009942A88398848885F846E847D848C845E
:101CC0009B84AA84B984C884DF80EE80FD800C8167
:101CD0001B81AA81B981CE0FD11D0FB6F894DEBF4A
:101CE0000FBECDBFED0108955058BB27AA270E9413
:101CF0008C0E0C94030E0E94F50D38F00E94FC0D22
:101D000020F039F49F3F19F426F40C94F20D0EF4F0
:101D1000E095E7FB0C94EC0DE92F0E94140E58F3AC
:101D2000BA17620773078407950720F079F4A6F5C0
:101D30000C94360E0EF4E0950B2EBA2FA02D0B014D
:101D4000B90190010C01CA01A0011124FF27591B00
:101D500099F0593F50F4503E68F11A16F040A22F06
:101D6000232F342F4427585FF3CF46953795279577
:101D7000A795F0405395C9F77EF41F16BA0B620B76
:101D8000730B840BBAF09150A1F0FF0FBB1F661FBD
:101D9000771F881FC2F70EC0BA0F621F731F841F00
:101DA00048F4879577956795B795F7959E3F08F026
:101DB000B0CF9395880F08F09927EE0F97958795E8
:101DC00008950E94F50E0C94030E0E94FC0D58F02D
:101DD0000E94F50D40F029F45F3F29F00C94EC0DC2
:101DE00051110C94370E0C94F20D0E94140E68F3EE
:101DF0009923B1F3552391F3951B550BBB27AA27C4
:101E000062177307840738F09F5F5F4F220F331FFD
:101E1000441FAA1FA9F335D00E2E3AF0E0E832D0C5
:101E200091505040E695001CCAF72BD0FE2F29D0C8
:101E3000660F771F881FBB1F261737074807AB079A
:101E4000B0E809F0BB0B802DBF01FF2793585F4F0F
:101E50003AF09E3F510578F00C94EC0D0C94370E3F
:101E60005F3FE4F3983ED4F3869577956795B795F1
:101E7000F7959F5FC9F7880F911D9695879597F9FC
:101E80000895E1E0660F771F881FBB1F6217730775
:101E90008407BA0720F0621B730B840BBA0BEE1F8A
:101EA00088F7E09508950E941C0E88F09F5798F0DF
:101EB000B92F9927B751B0F0E1F0660F771F881F4F
:101EC000991F1AF0BA95C9F714C0B13091F00E9469
:101ED000360EB1E008950C94360E672F782F8827C0
:101EE000B85F39F0B93FCCF3869577956795B39590
:101EF000D9F73EF490958095709561957F4F8F4FFF
:101F00009F4F08950E94580D08F48FEF08950E9486
:101F1000580D880B990B0895A1E21A2EAA1BBB1B22
:101F2000FD010DC0AA1FBB1FEE1FFF1FA217B307A5
:101F3000E407F50720F0A21BB30BE40BF50B661FBB
:101F4000771F881F991F1A9469F76095709580957F
:101F500090959B01AC01BD01CF010895EE0FFF1FCD
:101F60000590F491E02D09940F931F93CF93DF9385
:101F70008230910510F482E090E0E091C702F09188
:101F8000C80230E020E0B0E0A0E0309799F42115DD
:101F9000310509F44AC0281B390B24303105D8F526
:101FA0008A819B816115710589F1FB01938382838D
:101FB000FE0111C0408151810281138148175907E8
:101FC000E0F04817590799F4109761F012960C93B6
:101FD000129713961C933296CF01DF91CF911F91E8
:101FE0000F9108950093C7021093C802F4CF2115F2
:101FF000310551F04217530738F0A901DB019A016E
:10200000BD01DF01F801C1CFEF01F9CF9093C80204
:102010008093C702CDCFFE01E20FF31F819391930E
:102020002250310939832883D7CF2091C5023091BE
:10203000C602232B41F42091050130910601309313
:10204000C6022093C502209103013091040121159D
:10205000310541F42DB73EB7409107015091080179
:10206000241B350BE091C502F091C602E217F3077D
:10207000A0F42E1B3F0B2817390778F0AC014E5FF8
:102080005F4F2417350748F04E0F5F1F5093C6026D
:102090004093C502819391939FCFF0E0E0E09CCF05
:1020A000CF93DF930097E9F0FC01329713821282FD
:1020B000A091C702B091C802ED0130E020E0109776
:1020C000A1F420813181820F931F2091C5023091AC
:1020D000C6022817390709F061C0F093C602E093E1
:1020E000C502DF91CF910895EA01CE17DF07E8F529
:1020F0004A815B819E0141155105B1F7E901FB83DE
:10210000EA8349915991C40FD51FEC17FD0761F47B
:10211000808191810296840F951FE90199838883BC
:10212000828193819B838A83F0E0E0E012968D9117
:102130009C9113970097B9F52D913C911197CD0182
:102140000296820F931F2091C5023091C602281774
:10215000390739F6309751F51092C8021092C7022C
:10216000B093C602A093C502BCCFD383C283408183
:102170005181840F951FC817D90761F44E5F5F4FD7
:1021800088819981480F591F518340838A819B819F
:10219000938382832115310509F0B0CFF093C802F3
:1021A000E093C7029ECFFD01DC01C0CF13821282F3
:1021B000D7CFB0E0A0E0EFEDF0E10C943F0E8C0142
:1021C000009751F4CB010E94B40F8C01C801CDB728
:1021D000DEB7E0E10C945B0EFC01E60FF71F9C01FB
:1021E00022503109E217F30708F49DC0D901CD91BF
:1021F000DC911197C617D70798F0C530D10530F399
:10220000CE0104978617970708F3C61BD70B2297B2
:10221000C193D1936D937C93CF010E945010D6CF80
:102220005B01AC1ABD0A4C018C0E9D1EA091C70229
:10223000B091C802512C412CF12CE12C109731F5B2
:102240008091C5029091C6028815990509F05CC07D
:102250004616570608F058C080910301909104017A
:10226000009741F48DB79EB7409107015091080146
:10227000841B950BE817F90708F055C0F093C602C8
:10228000E093C502F90171836083A0CF8D919C9189
:10229000119712966C90129713967C901397A8152D
:1022A000B90559F56C0142E0C40ED11CCA14DB0417
:1022B00020F1AC014A195B09DA011296159780F0FA
:1022C0006282738251834083D9016D937C93E114C0
:1022D000F10471F0D7011396FC93EE93129776CF29
:1022E00022968C0F9D1FF90191838083F301EFCF1C
:1022F000F093C802E093C70269CF4816590608F464
:102300002C017D01D3019ACFCB010E94B40F7C0137
:10231000009749F0AE01B8010E949611C8010E94D1
:102320005010870153CF10E000E050CFFB01DC01DB
:1023300002C001900D9241505040D8F70895FC0121
:102340008191861721F08823D9F79927089531972D
:10235000CF010895FB01DC018D91019080190110DE
:10236000D9F3990B0895FB01DC0101900D92002037
:10237000E1F7089510E0C2E6D0E004C0FE010E943B
:10238000AE0F2196C336D107C9F7F894FFCF64008A
:10239000010000C90280000E000C000D0009000BB6
:1023A0000003000700060000000000BB01DB00087E
:1023B000010802790117016B01000000004305DBF1
:1023C00000FE03D3006E616E00696E66006F766674
:1023D0000041542B434D4746203D2031000D0A005B
:1023E00041542B434E4D49203D20312C322C302C72
:1023F000302C300041542B434D47463D3100415471
:102400002B434D47533D2230313039333435383446
:10241000353822005E43004448545F54656D706552
:102420007261747572653D004448545F48756D690A
:10243000646974793D0054313D002054323D0030D0
:102440003130004F4646004F4E00414E5449430044
:042450004C004800F4
:107E0000112484B714BE81FFF0D085E080938100F7
:107E100082E08093C00088E18093C10086E0809377
:107E2000C20080E18093C4008EE0C9D0259A86E02C
:107E300020E33CEF91E0309385002093840096BBD3
:107E4000B09BFECF1D9AA8958150A9F7CC24DD24C4
:107E500088248394B5E0AB2EA1E19A2EF3E0BF2EE7
:107E6000A2D0813461F49FD0082FAFD0023811F036
:107E7000013811F484E001C083E08DD089C08234E0
:107E800011F484E103C0853419F485E0A6D080C0E4
:107E9000853579F488D0E82EFF2485D0082F10E0AE
:107EA000102F00270E291F29000F111F8ED06801E7
:107EB0006FC0863521F484E090D080E0DECF843638
:107EC00009F040C070D06FD0082F6DD080E0C81688
:107ED00080E7D80618F4F601B7BEE895C0E0D1E017
:107EE00062D089930C17E1F7F0E0CF16F0E7DF06D8
:107EF00018F0F601B7BEE89568D007B600FCFDCFD4
:107F0000A601A0E0B1E02C9130E011968C91119780
:107F100090E0982F8827822B932B1296FA010C0160
:107F200087BEE89511244E5F5F4FF1E0A038BF0790
:107F300051F7F601A7BEE89507B600FCFDCF97BE46
:107F4000E89526C08437B1F42ED02DD0F82E2BD052
:107F50003CD0F601EF2C8F010F5F1F4F84911BD097
:107F6000EA94F801C1F70894C11CD11CFA94CF0C13
:107F7000D11C0EC0853739F428D08EE10CD085E9AC
:107F80000AD08FE07ACF813511F488E018D01DD067
:107F900080E101D065CF982F8091C00085FFFCCF94
:107FA0009093C60008958091C00087FFFCCF809118
:107FB000C00084FD01C0A8958091C6000895E0E648
:107FC000F0E098E1908380830895EDDF803219F02E
:107FD00088E0F5DFFFCF84E1DECF1F93182FE3DFCA
:107FE0001150E9F7F2DF1F91089580E0E8DFEE27F6
:047FF000FF270994CA
:027FFE00040479
:00000001FF
